:020000040000FA
:10000000680A0020C1000000430E000091090000B2
:10001000FFFFFFFFFFFFFFFFFFFFFFFFFFFFFFFFF0
:10002000FFFFFFFFFFFFFFFFFFFFFFFF3912000091
:10003000FFFFFFFFFFFFFFFFE11000007113000053
:1000400035010000AD110000350100003501000050
:1000500035010000350100003501000035010000C8
:1000600035010000FFFFFFFF3501000035010000F2
:10007000350100003501000035010000FFFFFFFFE2
:10008000FFFFFFFF350100003501000035010000D2
:100090003501000035010000350100003501000088
:1000A0003501000035010000350100003501000078
:1000B0003501000035010000350100003501000068
:1000C0001D4880471D4880471D4800471D4801695D
:1000D000002908D14169002905D18169002902D18F
:1000E000C169002909D01848C1680901090D002912
:1000F0000ED005290CD006290AD0BFF34F8F134824
:100100001349016013491248C860BFF34F8FFEE7DF
:100110000E4801680E48884200D070470E480F49CB
:1001200001600A480E4901607047FEE7FEE7FEE7FE
:10013000FEE7FEE7FEE70000CD00000075130000BB
:100140006501000000030840800108400000002015
:100150000400FA0500ED00E0008108400100000005
:10016000000000000348854600F02EFA00480047D2
:10017000A91B0000680A002030B50B46014600208C
:100180002022012409E00D46D5409D4205D31D469D
:100190009540491B2546954040191546521E002D95
:1001A000F1DC30BD70B500242546002801DA0124B9
:1001B0004042002901DA01254942FFF7DDFFAC4248
:1001C00000D04042002C00D0494270BD03460B4392
:1001D0009B0703D009E008C9121F08C0042AFAD2FD
:1001E00003E00B780370401C491C521EF9D2704783
:1001F000421C0178401C0029FBD1801A704730B5A1
:1002000005460020034600E05B1C934205D2EC5CEF
:10021000C85C201A01D1002CF6D130BD0321001D8D
:10022000401E037812021A43491EF9D51046704742
:1002300070B502464A40D50F40004A00ED0740081D
:100240005208002814D0002A12D0C40DD30D410248
:100250000120C0055202490A520AE41A091812186C
:100260007D34914201D3641C00E04900002C01DA86
:10027000002070BD0023914201D3891A0343400836
:1002800049000028F7D100290AD0914202D101216A
:10029000C90705E0914201D2012101E00121C943D2
:1002A000E005C018401900F0EEF870BDF0B51FB4BD
:1002B00088B00B990998002448400999C00F49005B
:1002C00049080991C0070B990090490049080B9112
:1002D00009990898A64608431CD00B990A98084328
:1002E00018D0099801244000420D4800410D09989A
:1002F00024050003000B204309900B980003000B1A
:1003000020430B9050181C494018002201901446BD
:10031000104605E0002001460DB0F0BD032801DACB
:10032000034600E003239C46C11A0AAE0AE05F00C0
:1003300008ADED5B4F00F75B7D430027AA187C41B9
:10034000491C5B1E6145F2DD410004AB5A52210499
:10035000120C0A43240C401C0828DFDB0198029091
:100360000099704601910090059B049A07990698A0
:1003700000F0D7F8D0E700000DFCFFFF70B54B0090
:100380005B0803430BD04B005C0D002633466542EF
:10039000B341D417AD1AA34102DB0020014670BD62
:1003A00012053018514170BDC217C10F504010B531
:1003B0004018CA079623002100F06DF810BD000018
:1003C0000EB5C217C10F5040CA0740180021054B97
:1003D0000293019200910A460B4600F0A2F803B086
:1003E00000BD000033040000C20F410040020123A1
:1003F000400ADB05D207090EC0187F2901DA002068
:100400007047962903DC9623591AC84001E09639B3
:100410008840002AF4D040427047000070B5CD0FEC
:100420004A0009030123090B1B0519430B4BED0778
:100430000024520D9A4201DA002070BD074B34337C
:100440009A4203DC9A1A00F00DF802E004495118B0
:1004500088402C43F1D0404270BD0000FF030000F3
:10046000CDFBFFFF10B5202A04DB0846203AD04020
:10047000002110BD0B46D340D0402024A21A914049
:100480000843194610BD002904DA401C490001D177
:1004900040084000704770B40024050C05D11024BA
:1004A000000402D1002921D01124050E01D100023F
:1004B0000834050F01D10001241D850F01D18000F2
:1004C000A41C002801DB4000641C002908D0202562
:1004D0002E1B0D46F540A14000D0012129430843C1
:1004E00001061B1B000ADB1D02D5002070BC7047F3
:1004F000DB05181880180029F8DA401C4900F5D1EE
:1005000070BC40084000704710B5002B08DA00248A
:10051000401C614192185B411A4301D140084000E0
:1005200010BDF0B51FB482B005460C0003D00846DC
:1005300001F0D8F802E001F0D5F820300246009032
:100540002146284600F052F8049B059A04460F46BF
:1005500018431143084314D0184610431BD0009889
:1005600040210A1A18460599FFF77CFF05460E46FA
:10057000009A0599049800F039F8084305D0012045
:1005800004E02046394607B0F0BD0020C1170543FE
:100590000E432C43374300990E986305401A7905A2
:1005A000E40A00220C43FD0A0A3002D5002001466D
:1005B000E9E70105101969410C9C0D9D001969417D
:1005C000FFF7A2FFDFE70000064C0125064E05E01D
:1005D000E36807CC2B430C3C98471034B442F7D364
:1005E000FFF7C4FD382400005824000010B5202A6D
:1005F00004DB0146203A9140002010BD91402023A9
:100600009C1A0346E3401943904010BD70B58C1806
:100610000578401C6B075B0F01D10378401C2A1141
:1006200006D10278401C03E006780E70401C491C7D
:100630005B1EF9D12B0705D40023521E0DD40B707D
:10064000491CFAE70378401CCB1A921C03E01D7882
:100650000D70491C5B1C521EF9D5A142D8D3002055
:1006600070BD0000F0B596460A461349C000461812
:1006700000230025FF2098402C46104216D0002071
:10068000012199408C461146C1406746394206D047
:1006900087000F21B9400D437146B9400C43401CFF
:1006A0000828F0D33068A843204330600833361D53
:1006B000082BDEDDF0BD00002020024003498968E0
:1006C000014201D00120704700207047008008409F
:1006D00070B5184D0446686B4607760F00F02EF88B
:1006E00015492060330001F014F8081405070714B9
:1006F000140E1114606000E06160296A60680529C9
:1007000009D3400908E00120C003F3E77D2000027F
:10071000F0E70020EEE7C840A060A96A4903490F4E
:10072000072902D0C840E06070BD0321FFF724FD17
:10073000F9E700000080084000127A000C490868C0
:10074000C869C20F4868400AC007C00F0ED00948E8
:10075000002A0BD18869C00D0007000F00D11020BE
:100760008969044A4902890F5043C8407047000014
:100770000080084000127A001FB541090A4A89002A
:100780008A1800212E2800D10221C006C00E12684E
:10079000032383401A40C24054186846FFF798FF6D
:1007A000029804B0E04010BD38800840F0B5084F12
:1007B0007C6AFD6A3E6B84438D439643002B02D0D6
:1007C00004430D4316437C62FD623E63F0BD0000AE
:1007D00000800840002A026801D00A4300E08A43F2
:1007E00002607047F0B5002425462346CE0706D0A8
:1007F0005E001746B7403C430327B7403D434908D6
:100800005B1C102BF2D34169A9434161416921432B
:100810004161F0BD002A426801D00A4300E08A43EA
:1008200042607047002A08D0012A09D082688A43B2
:100830008260C2688A43C260704782680A43F7E7F1
:10084000C2680A43C26082688A4382607047C06996
:10085000084000D001207047002A01D04162704753
:100860008162704770B50D4611490001441800209F
:100870002121490201230246FFF798FF227AE188ED
:100880002079FFF7EFFEA27BA189A07AFFF7EAFEAD
:100890002946206800F0A2FE01220021206800F015
:1008A000DFFE01221146206800F0DAFE70BD000074
:1008B00028240000F8B5054613481349465D680032
:1008C00010310C5A08460D38475DB0000C310858FD
:1008D0000090304600F0CEFE3A4621463046FFF703
:1008E000C1FE284600F012F8214602220098FFF7C8
:1008F00099FF214601220098FFF774FF214601224B
:100900000098FFF767FFF8BDF4230000044A410098
:10091000515A103A105C80001C32105841627047E6
:10092000042400000649095C8A0005491C318958E5
:100930000A6A034B40001033185A42400A6270475B
:10094000F4230000012010B58004002201110123CE
:10095000FFF72CFF002220210220FFF783FE0B4C23
:10096000012220212046FFF735FF0022042102202A
:10097000FFF778FE002204212046FFF72BFF01221B
:1009800004212046FFF746FF10BD000000400B4049
:10099000024801680029FCD07047000000000020D8
:1009A00070B50124214DA403002221462846FFF7FB
:1009B00053FFF02001F077F8012221462846FFF787
:1009C0004BFFF02001F06FF8E22000F0BFF91E208D
:1009D00001F069F82C2000F0B9F91E2001F063F84D
:1009E0002E2000F0B3F91E2001F05DF82F2000F05A
:1009F000ADF91E2001F057F8242000F0A7F981205E
:100A000000F0A4F90F2000F0A1F9A22000F09EF957
:100A1000C02000F09BF9A12000F098F9402000F0E0
:100A200095F9AF2000F092F970BD000000000B4076
:100A3000F8B5072001210022000489030123FFF7F4
:100A4000B5FE012208211046FFF70CFE012202210B
:100A50001046FFF707FE0122D50329460020FFF7C5
:100A600001FE012280211046FFF7FCFD3E4E0022D0
:100A700008213046FFF7AEFE002202213046FFF784
:100A8000A9FE3A4C002229462046FFF7A3FE002289
:100A900080213046FFF79EFE002208213046FFF7F6
:100AA000C1FE002202213046FFF7BCFE002229468B
:100AB0002046FFF7B7FE002280213046FFF7B2FE46
:100AC000012208213046FFF7A5FE0122022130460F
:100AD000FFF7A0FE012229462046FFF79BFE0122D8
:100AE00080213046FFF796FE01221502294602209A
:100AF000FFF7B8FD0122560231460220FFF7B2FD92
:100B0000012211460020FFF7ADFD0122082102203D
:100B1000FFF7A8FD164F012229463846FFF75AFE77
:100B2000012231463846FFF755FE01221146204684
:100B3000FFF750FE012208213846FFF74BFE012245
:100B400029463846FFF788FE012231463846FFF72E
:100B500083FE012211463846FFF77EFE012208215E
:100B60003846FFF779FEF8BD00200B4000000B402F
:100B700000400B4070B50F4E002500220121304689
:100B8000FFF76AFE2846B030C0B200F0DFF8102050
:100B900000F0DCF8002000F0D9F80024002000F07C
:100BA00007F9641CE4B2842CF8D36D1CEDB2092D56
:100BB000E3D370BD00200B40FEB5002405200125C5
:100BC00021214004AD03490201232246FFF7EEFD37
:100BD000254E012204213046FFF7FCFD00220221B0
:100BE0003046FFF71FFE012202213046FFF712FEBA
:100BF000012211461D48FFF7EDFD012229461C4840
:100C0000FFF7E8FD1B4D012211462846FFF7E2FDE4
:100C1000012204212846FFF7DDFD0122202128467C
:100C2000FFF7D8FD062210210020FFF71BFD06224A
:100C300020210020FFF716FDE12040020090A815BA
:100C400069468880CC800C814C810B4C204600F09A
:100C5000C5FC01220021204600F002FD01221146C0
:100C6000204600F0FDFCFEBD00600B4000400B4044
:100C700000000B4000200B400000044070B50D4602
:100C80000646002420222146304600F011F8641C5C
:100C9000112CF7DB002405E02A5D2146304600F0E8
:100CA00007F8641C2846FFF7A3FAA042F4D870BDE9
:100CB000F7B584B004981746020182182048CE0088
:100CC0001018401820380190C07B02903801FF387E
:100CD000FF3802380025761D03900298B8422DD0C7
:100CE00001980022C77301211648FFF7B5FD04984B
:100CF00040004019AE30C0B200F028F8F017000FE5
:100D0000841920111030C0B200F020F82009000131
:100D1000301AC0B200F01AF803990024E800401815
:100D2000009001190848405C00F042F8641C082C4F
:100D300001DA0098F5E76D1C022DCEDB07B0F0BD9F
:100D4000E407002000200B40A801002070B5164EDB
:100D500005460024224601213046FFF77DFD002292
:100D600001211248FFF778FD002220213046FFF7CD
:100D700073FD280601D5012200E00022042130463F
:100D8000FFF76AFD192000F08EFE01222021304677
:100D9000FFF762FD192000F086FE6806641C050E50
:100DA000E4B2082CE0D370BD00200B4000400B40A3
:100DB00070B5134E05460024224601213046FFF748
:100DC0004BFD012211460F48FFF746FD002220216E
:100DD0003046FFF741FD280601D5012200E0002240
:100DE00004213046FFF738FD012220213046FFF76D
:100DF00033FD6806641C050EE4B2082CE6D370BD12
:100E000000200B4000400B4010B54A7E0B7E1202C2
:100E10001B0613430C688A6822434C681C43224318
:100E20000C69CB684969234311430B43036710BD29
:100E300010220029016F01D0114300E091430167A6
:100E40007047704710B504480021017081704170EF
:100E500000F038F810BD00007000002010B500F060
:100E600031F810BD70B5154D012202212846FFF75B
:100E7000B1FC002202212846FFF7EEFC104C60680E
:100E800000F011FE012202212846FFF7E5FC606810
:100E90000A3000F008FE002202212846FFF79AFCE3
:100EA00002212846FFF7D3FCC2072169A068D20FB0
:100EB000401A00F0F8FD104670BD000000600B40C5
:100EC00070000020FEB5002004460190014600900D
:100ED0003D480126C1708078354600286DD100F06C
:100EE00075F8002806D038480021017081704170E3
:100EF0000846FEBDF02000F0C7F83348406800F017
:100F0000D2FDFFF7AFFFC7B2FFF7ACFFC0B2002FB3
:100F100001D0002838D1874201D0384610E02A4954
:100F20000878864205D208463030005D284002D15C
:100F300004E0864201D1012000E00020002802D018
:100F4000012812D003E00196092E00D24E701E49EE
:100F500030310A5DAA430A5500F06EF8761C68002D
:100F60000506F6B22D0E05D00CE0174930310A5DAA
:100F70002A43F0E714483030005D00F0D9FD641CCE
:100F8000E4B20125082CBCD3412E03D30E49C87806
:100F9000002809D0009800280FD00B483030007886
:100FA00000280AD00098FEBD01980870002801D1E1
:100FB0000120887001200090EFE7034900200870AD
:100FC000887048700090FEBD7000002070B5184D0C
:100FD000012202212846FFF7FDFB164CE06900F0D4
:100FE00062FD002202212846FFF736FC206A00F04D
:100FF0005AFD012202212846FFF72EFC606A00F00C
:1010000052FD002202212846FFF7E4FB0221284678
:10101000FFF71DFC0646A06A00F045FD01220221F3
:101020002846FFF7D7FBE06A00F03DFD304670BD73
:1010300000600B407000002070B5114D0646012283
:1010400002212846FFF7C6FB002202212846FFF7AF
:1010500003FC0C4C606800F026FD32460221284655
:10106000FFF7FAFB2169A068401A00F01CFD01227D
:1010700002212846FFF7F0FB206900F014FD70BD47
:1010800000600B407000002070B505460024E807A2
:10109000C00FFFF7D1FF641C6D08E4B2082CF6D333
:1010A00070BD00000548064902E08A68272A03D07F
:1010B000401EFAD1012070470020704700366E01B3
:1010C00000A10640054801214160090342688A43A6
:1010D000FCD101680029FCD17047000000A1064046
:1010E00070470EB5E12040020090FF2001306946B4
:1010F00088800020C88008814881FFF7B3FB0EBDBF
:1011000003498A6802239A43400002438A60704779
:1011100000A0064005490028886802D0012210433B
:1011200001E04008400088607047000000A00640D1
:1011300010B5FFF7C7FF012000F068F8012000F0AC
:101140004FF81020FFF7BAFA0028FAD00120FFF775
:10115000D7FF0121084600F037F80F20000200F009
:101160005FF810BD014800687047000000A006400D
:101170000148C068C0B2704700A0064010B54022C8
:10118000002091000123FFF711FBFFF78BFF0028E0
:1011900000D0FEE70020FFF78DFBFFF7A2FF02491A
:1011A0000220086010BD000000E100E010B5FFF76C
:1011B000DFFFC00702D00349012008600020FFF7CD
:1011C000B1FB10BD0C000020044A0029116901D0B8
:1011D000014300E0814311617047000000A0064018
:1011E000084A082300280849906805D018439060F1
:1011F0008868C006FCD57047984390608868C00630
:10120000FCD4704700A006400080084003498A686B
:1012100020239A43400102438A60704700A00640A1
:10122000034A9168034B19400143916070470000E5
:1012300000A00640FFF000007047000004220449AF
:101240000428086902D09043086170471043FBE707
:1012500000E000E00749002806D00128086906D010
:1012600040084000086170470020886170470122F3
:101270001043F7E700E000E0044902220028086973
:1012800001D0104300E090430861704700E000E0A7
:10129000014948617047000000E000E070B5FFF7C9
:1012A0008FF804460D460022284BFEF7FFFFFFF79C
:1012B000B5F8274E00227060264B20462946FEF7DF
:1012C000F5FFFFF7ABF8B0600022234B204629461C
:1012D000FEF7ECFFFFF7A2F8F06003222046294654
:1012E000FFF74CF8FFF79AF8306100221B4B2046BD
:1012F0002946FEF7DBFFFFF791F870610022184BDB
:1013000020462946FEF7D2FFFFF788F8B06100209B
:101310000246F061134B20462946FEF7C7FFFFF750
:101320007DF830620022104B20462946FEF7BEFFB2
:10133000FFF774F8706200220C4B20462946FEF736
:10134000B5FFFFF76BF8B062F06270BD00001440AB
:101350007000002000804E4000004E4000002A40F7
:101360000000454000F07D4000804B4000006E4092
:1013700070470000F0B539491020C860384A012094
:1013800010603849086B402528430863364800231D
:1013900044158668272EFCD100E044604668B605F7
:1013A000FBD500E043604668B605FBD41360486A8D
:1013B000032292029043486248680122D2021043FD
:1013C00048608868C008C007FBD04868C008C000F3
:1013D000C01C4860486B4007400F0328FAD1234ADD
:1013E0001068C008C000401C10600B624868A04331
:1013F00048600868961530430860486817153843F8
:10140000486088688008C007FBD0086BA843086361
:101410000868B043086003200006886148682043DC
:10142000486088684008C007FBD01068C008C0004A
:10143000801C10600B624868C008C000401C4860F7
:10144000486B4007400F0128FAD11068102108436B
:1014500010601068090208431060F0BD0081084068
:10146000008308400080084000A1064000020840B8
:101470007FB51749FEF780FE0846E1210901FEF716
:101480007BFE0C46064620463C21FEF775FE0546CF
:1014900020463C21FEF770FE0C4632460DA101A805
:1014A00000F00CF92A460BA102A800F007F9224629
:1014B00008A103A800F002F903A8009002AB01AA5A
:1014C00006A1384600F0FAF8384604B070BD0000B6
:1014D00080510100253032750000000025733A2547
:1014E000733A2573000000000029016902D001222F
:1014F000114301E04908490001617047F0B50C78DB
:10150000A2001218154613469035A032AE469446F6
:101510006206214D4033120EA84201D1032400E09F
:10152000012494401C4E056DE44325400565456D3E
:101530002540B0428E7902D1CF797F003E4396405C
:101540002E434665144FB84208D1C66E4D7A2640E8
:101550000C7A6D002C4394403443C4661C68FF250C
:101560000835AC431C601C684D882C431C604C89BA
:1015700073461C608C8963461C60B84206D10B79A7
:10158000497949000B439340016D02E0036D0979ED
:1015900091400B430365F0BD00C0024010B5024608
:1015A0004B88803293600B885360036803242404C3
:1015B000A3430360036801242406A3430360036874
:1015C0008C6823430360044B984201D10B79D360AC
:1015D0008989816710BD000000C0024070B50446D3
:1015E0000D46C8888988626808432989184B1A40C3
:1015F00011430843698908436060012080078442E1
:1016000006D11820FFF7B8F82968FEF7B5FD60622B
:101610001048844206D11A20FFF7AEF82968FEF779
:10162000ABFD60620C48844206D11C20FFF7A4F891
:101630002968FEF7A1FD60620848844206D11E2099
:10164000FFF79AF82968FEF797FD606270BD000009
:10165000FCE0FFFF000004400010004000100440C8
:1016600010238B404168002A01D0194300E09943C0
:10167000416070471CB50022009201216B46019227
:10168000195418784904C007C00B88435978C90712
:10169000890B08430121890488439978C907490BBC
:1016A00008430121C9048843D9780123C907090BDC
:1016B000084301218903FFF779F81CBD0FB410B569
:1016C00004A9074B02AA039800F040F8044602A9B7
:1016D000002000F0E3F9204610BC08BC04B0184715
:1016E0009D1A00002021020C01D010211046020A90
:1016F00001D010460839020901D01046091F82089E
:1017000001D01046891E420801D0881E7047081A71
:10171000704730B47446641E2578641CAB4200D216
:101720001D46635D5B00E31830BC184702E008C843
:10173000121F08C1002AFAD170477047002001E04B
:1017400001C1121F002AFBD170470000FFB58FB006
:101750000546002606E025280AD0129A11999047DE
:101760006D1C761C28780028F5D1304613B0F0BDEA
:10177000002402940121B54A009400E004436D1C4A
:101780002B780846203B98401042F7D128782A2829
:101790000ED00222287801463039092916D802993C
:1017A0000A2359433039401814436D1C0290F1E765
:1017B000109802C802911090002904DA0120400319
:1017C000044348420290022004436D1C28782E28CE
:1017D00017D10420044368786D1C2A280CD1109876
:1017E0006D1C02C8009110900BE000990A22514331
:1017F000303940186D1C009028780146303909298D
:10180000F3D928786C2810D006DC4C281AD0682828
:101810000ED06A2817D104E0742813D07A2812D188
:1018200010E00120400504430CE00121090501E01E
:10183000032109050C436978814203D10120000589
:1018400024186D1C6D1C2878692874D006DC0028CB
:101850008BD0632827D0642806D16CE06E2808D08E
:1018600073282CD0752878D0129A11999047761C3D
:101870005FE06002400F022809D003280DD0042841
:10188000109801680DD00E60001D109051E0109866
:10189000F21701680E604A60F6E7109801680E8042
:1018A000F2E70E70F0E710986A4601781173001D98
:1018B00010900020507303A80190012005E01098BB
:1018C00002C8019110900020C04361070CD5002789
:1018D00000E07F1C00998F420FDA8742F9DB019903
:1018E000C95D0029F5D108E0002700E07F1C874290
:1018F000FCDB0199C95D0029F8D102982146C01B83
:101900000290129B119A00F0B3F88019C61907E0F3
:10191000019801990078491C0191129A11999047F8
:101920007F1EF5D22146129B119A029800F090F882
:1019300086196D1C16E70A200190109901C91091B3
:101940006102490F032900D100B2042900D140B23D
:10195000002803DA40422D2103E00DE0210504D5E3
:101960002B216A461173012103E0E10711D02021E8
:10197000F7E70CAF0C9114E00A200190109901C90F
:1019800010916102490F032900D180B2042900D1CE
:10199000C0B20021EDE70199FEF7EEFB30317F1E6A
:1019A00039700028F7D104A8C01B203001906007CF
:1019B00004D5012000048443009801E00120009038
:1019C0000199884201DD401A00E000204118009092
:1019D0000C9809180298401A0290E00306D4214698
:1019E000129B119A029800F043F8861900200D907E
:1019F00008E003A9085C129A119990470D98401CC1
:101A0000761C0D900C998842F3DBE0030CD521463F
:101A1000129B119A029800F02BF8861904E0129A92
:101A2000302011999047761C0099481E009000299B
:101A3000F5DC05E03878129A7F1C11999047761CE6
:101A40000199481E01900029F4DC6BE70928010088
:101A5000F8B5044600251E461746880404D405E060
:101A600039462020B0476D1C641EF9D52846F8BDC4
:101A7000FFB50446002581B01E46C80301D53027B6
:101A800000E02027880404D505E038460399B047D4
:101A90006D1C641EF9D5284605B0F0BD0A68531CBC
:101AA0000B601070704708B500210091814202D28E
:101AB00000BF491CF9E708BD70B57D250446ED005F
:101AC00002E0284600F006F82046641EA4B2002872
:101AD000F7D170BD10B504460420C043FFF7AEFB3C
:101AE000114810490068FEF747FBFFF7D1FB0020C3
:101AF000FFF7C2FB0020FFF7ADFB0120FFF7AAFBB9
:101B000000210A4A03E01369D803FCD5491CA1420D
:101B1000F9D30120C043FFF79DFB0020FFF79AFB9C
:101B200010BD000000127A006C00002000E000E010
:101B30000349CA78424008463830805CC870704714
:101B40007000002010B500F0B1FB0B490028886040
:101B500007D00A78002A0BD04A68904204D10020AE
:101B600010BD01220A70F7E700220A70486010BD1C
:101B70006420FFF7A1FFF2E7A807002010B500F0EE
:101B800009F8FEF711FC02498968FEF751FB10BD08
:101B90009807002010B500F04BFB02494968401A35
:101BA00010BD00009807002094B04422E149684627
:101BB000FEF70CFB06201290002007460446139007
:101BC00001200004811001233A46FEF7EFFD0122B7
:101BD00004210020FEF746FD01220421D648FEF72D
:101BE000F9FDD64D0026EF602F616F61AF61EF61A7
:101BF0002F626F62129811906868FEF7F5FB074636
:101C0000FEF716FF00F0A8FAFEF7D6FFFFF7B6FAC8
:101C1000FFF78EFA0120FFF77DFA0620FFF73EFB63
:101C2000FFF710F96870012028700025E8B200F075
:101C3000B5FA0146C24841556D1C082DF6DB14E08B
:101C4000FFF70CF968700025E8B200F0A7FA01462A
:101C5000BA480078C200BA48101841556D1C082DCA
:101C6000F2DBB6480178491C0170B44D6878002851
:101C7000E6D12878401E2870FEF792FEFEF77AFF24
:101C8000FFF72FFAFEF75EFE00F04CFA7D20C00051
:101C9000FFF712FF00F056FAAA4800F059FB00F0D7
:101CA0007DFB0220FFF76AFF00F03CFA00F092F99A
:101CB000FFF7C8F80146A1484170012101700025D5
:101CC000E8B200F06BFA9E4948556D1C082DF7DB11
:101CD00013E0FFF7C3F868700025E8B200F05EFA81
:101CE00096490978CA009649511848556D1C082D27
:101CF000F3DB92480178491C0170904D6878002808
:101D0000E7D1FFF71FFF0546002E14D0012ECFD0DC
:101D1000022E7DD0032ECBD1FEF72CFFA900684602
:101D20004058002875DBFF21F5318F4272DA0A2214
:101D300057433F18E5E0810068464058002800DB23
:101D400006467E4DA86801283ED1FFF70BFA13998D
:101D50004018FFF78DFB024679487BA11038FFF74A
:101D6000ADFC77480D227AA11038FEF748FA00281A
:101D700028D16969491C69612869082803DA784A09
:101D80000240012A03D0072805DDC20701D11F291F
:101D90000BDC082803DAC20705D0072809DD704AE2
:101DA0000240012A05D11E2903DD0122401C6A617F
:101DB0002861296928460C2904DDC168491CC160D5
:101DC000012129610020A860FFF7CCF91399401880
:101DD000FFF74EFB594905222831FEF710FA00287B
:101DE00095D0574901201039FEF748FF53485DA1AF
:101DF0003830FFF763FC514902203831FEF73EFFCF
:101E00004E485BA14830FFF759FC4C49483102E08D
:101E10000FE07AE072E00320FEF730FF474858A158
:101E20005830FFF74BFC454904205831FEF726FF98
:101E30003EE7FEF79FFEA9006846405800281EDBDB
:101E4000002C04D0012C04D0022C0FD04DE01190B6
:101E500048E03A4A116A022903DB032904DA04281C
:101E600002DA0A2359430818106227E0334A516AFC
:101E7000062902DA0A2359430818506223E0411D5B
:101E800008D0801D12D0002C2CD0012C16D0022C92
:101E900019D02AE0002C04D0012C05D0022C0CD043
:101EA00023E0129811901CE000241BE0002C04D0C9
:101EB000012C07D0022C0AD017E001241F4833A1BF
:101EC000026A2AE002241D4834A1426A25E01198E2
:101ED00012901A4835A1436A026A2830FFF7EEFBD8
:101EE0000024002634A1119A17E015490120103969
:101EF000FEF7C4FE3220FFF7DFFDD9E68F4200D1A6
:101F000007468F4207DD0F4605E0411D02D0801DC8
:101F100008D000E000263A462BA109481038FFF708
:101F2000CDFBE2E73846FEF73FFA04494860129FCE
:101F3000F0E70000B023000000000B400400002088
:101F4000C40700200080D44354696D653A257300AE
:101F500054696D653A30303A30303A303000000024
:101F600001000080313A5365742074696D6500008A
:101F7000323A53657420696E74657276616C000044
:101F8000333A536574206665656400007365742098
:101F9000686F75723A2530326400000073657420F2
:101FA0006D696E7574653A2530326400253032648F
:101FB0003A2530326400000073657420696E7465E0
:101FC0007276616C3A256400736574206665656499
:101FD0003A256400F8B5012601250520B603002442
:101FE00000042B462A463146FEF7E0FB042251034B
:101FF0000120FEF737FB042210210120FEF732FBFF
:10200000012202210020FEF72DFB404F0022022179
:102010003846FEF7DFFB022211463846FEF702FC87
:10202000012202213846FEF7F5FB0122314602204B
:10203000FEF718FB012231463548FEF7CBFB0122A3
:1020400080210020FEF70EFB012280213846FEF79A
:10205000C1FB0122560231460020FEF703FB01229C
:1020600031463846FEF7B6FB012208210020FEF774
:10207000F9FA012208213846FEF7ACFB012296024C
:1020800031460020FEF7EEFA012231463846FEF7CF
:10209000A1FB21481F4941801421018004712902BC
:1020A000846081811D4E01463046FFF777FA1A4958
:1020B000062010310C7048800D714D718C71CC71FF
:1020C0000C724D72164848818C813046FFF716FA23
:1020D000114869052030016049104160C910C56090
:1020E000816002210161202141614821017644760D
:1020F00001463046FEF788FE01213046FFF7F4F92D
:1021000001213046FEF794FEF8BD000000000B40B0
:1021100000400B40BF5D00002808002000C00240C6
:10212000E02E000010B5064C012220212046FEF7CB
:1021300093FB002220212046FEF78EFB10BD0000FD
:1021400000400B4010B5012220210248FEF784FB1D
:1021500010BD000000400B4070B501200C4C0D4D2F
:102160002070024601022846FEF776FB012251024A
:102170002846FEF771FB012211460748FEF76CFB6B
:10218000012208212846FEF767FB0020A06070BDF1
:10219000A807002000400B4000000B400149085CEC
:1021A00070470000A0000020F8B51F4F04213846FA
:1021B000FEF74DFB1D4D0020286000F0CFF8A87001
:1021C00000F0CCF8687000F0C9F828702E460120A5
:1021D0000C3E70703078402802D0202802D003E0F6
:1021E000032000E00220707000240BE00022202178
:1021F0003846FEF731FB012220213846FEF72CFB42
:10220000641CE4B270788442F0D3A878000601D54B
:10221000FF2000E00020E870681CFDF7FFFF297830
:10222000000208432860F8BD00400B40A4070020CE
:1022300070B5002506462C4607E0FFF7B5FF4519A7
:102240000120FFF739FC641CE4B2B442F5D33146F7
:102250002846FDF7A7FF70BD10B5124C0821204697
:10226000FEF7F5FA002814D002212046FEF7EFFA17
:10227000002810D00121C9030B48FEF7E8FA002816
:102280000BD080212046FEF7E2FA002807D000207C
:1022900010BD012010BD052010BD092010BD0D206E
:1022A00010BD000000200B4000000B4070B5FF2661
:1022B000254D0136002231462846FEF7CDFAFFF7BC
:1022C000CBFF0446012231462846FEF7C5FA002C12
:1022D00001D0204670BD01267602002231462846F4
:1022E000FEF7BAFAFFF7B8FF044601223146284646
:1022F000FEF7B2FA002C01D0601C70BD134E002214
:1023000001213046FEF7A8FAFFF7A6FF0446012296
:1023100011463046FEF7A0FA002C01D0A01C70BD7B
:10232000002208212846FEF797FAFFF795FF04469A
:10233000012208212846FEF78FFA002C01D0E01C6C
:1023400070BD002070BD000000400B4000000B403D
:10235000014988607047000098070020F8B5002503
:102360000D4E2C460727002220213046FEF774FA36
:1023700004213046FEF76BFA391B88402843C5B26A
:10238000012220213046FEF767FA641CE4B2082CD3
:10239000E9D32846F8BD000000400B4010B50120ED
:1023A000FFF746FF0149486010BD00009807002074
:1023B000F9FFFFFF01000000020000000300000021
:1023C000FFFFFFFF04000000050000000600000002
:1023D000FEFFFFFF070000000800000009000000EA
:1023E000FDFFFFFFFBFFFFFF00000000FAFFFFFF04
:1023F000FCFFFFFF020202010101010303010101D1
:102400000C010200004000800200001002000400E5
:1024100000000B4000200B4000400B4000600B40D0
:102420000000000000000000000004400000100058
:1024300006000000200006005824000000000020D4
:10244000B40700000C060000AC280000B407002010
:10245000B40200003C170000A10320FA43B630305C
:102460003A3030600B313A5365742074696D653AC7
:1024700032102009696E74657276616C3A3310759A
:102480006665656404396CDC0200FF005EBCE261D5
:102490003FDD83C29C7E20A3FD1F419DC3217FFCA5
:1024A000A2401E5F01E3BD3E6082DC237D9FC142EE
:1024B0001CFEA0E1BF5D0380DE3C62BEE0025CDF8B
:1024C00081633D7C22C09E1D43A1FF4618FAA427CC
:1024D000799BC584DA3866E5BB5907DB856739BA6D
:1024E000E406581947A5FB7826C49A653BD98704AA
:1024F0005AB8E6A7F91B45C6987A24F8A6441A9953
:10250000C7257B3A6486D85B05E7B98CD2306EED7F
:10251000B3510F4E10F2AC2F7193CD114FADF3703C
:102520002ECC92D38D6F31B2EC0E50AFF1134DCE55
:1025300090722C6D33D18F0C52B0EE326C8ED05322
:102540000DEFB1F0AE4C1291CF2D73CA947628AB3B
:10255000F517490856B4EA6937D58B5709EBB536F4
:10256000688AD495CB2977F4AA4816E9B7550B8821
:10257000D6346A2B7597C94A14F6A8742AC89615DA
:102580004BA9F7B6E80A54D7896B02103572F00AE6
:1025900010CF18691B15C030C0301008C839CF39AA
:1025A0000F09011008E01010F810106010083041F9
:1025B00042FF4244381008C02010E020E0181F01FC
:1025C000C2310C738811192132E0E8097885828DB7
:1025D00070A29E426845C0300804541F60805504B4
:1025E0000830C0C480601F664428FE284439291D75
:1025F000080808FF0491E3B0701A8001C14AC05670
:10260000291A392A4CE01C03181D201010201C2701
:102610003F408080403F5A20994B80FF3F4B6010E5
:10262000201FC0A0908886C120191029D01D80804D
:102630008283DE39A929332F18161110FF10D919FA
:102640002119081F80818181423C082A403219608B
:102650004A42101A700E9A908269801E3845828212
:1026600045506910A783848848241FCBC3C3C8E999
:10267000F0A71028284444825A8801811E824444CD
:102680002828885AE0D0214CD8060180180E909056
:1026900010A0C03F408F90908F505FB22A70FA1008
:1026A0000880F08F088FF0802A10D019313C80FF0D
:1026B00082A129A0141020701C3F4080014A4020B4
:1026C0001B608020190F4B601F104B107030AB87C0
:1026D000E0105C020207E019BC29402C847C042035
:1026E000390429203B82FF7051195069DA391219D7
:1026F0002F5A7F0E2C80503030BD830CB0C0301D5F
:102700008080C02010198C39503C833C83505AC0C3
:10271000601D800F30FF284A60B09B1F60B039E019
:102720001684040402011008E01804040418E0A848
:102730000807182020609887203D0C34C281C029EA
:10274000C11008E04182828448302B3010227A3058
:10275000B269D0111A7F6019B279103E011EE01ED5
:1027600001103AC0101B0FF00219101370901B904B
:1027700070A01EE0990699E0B05910213483FC83C3
:102780001A706F1410D0301008C0B088868180E0B5
:1027900054FC040419EF514A70072144031CE0540F
:1027A0000404FC1B8080EDB11E8060180618F879C7
:1027B000105901818C2060401D311E66918949FEAF
:1027C000127310F0A67F8181423C1C3C4281115162
:1027D000392329109A7F42473C4A89898A4C25E04F
:1027E0001010202E0181FF8101782640404080405A
:1027F0001E53ACA4A4A30869602D80FF01017011D1
:1028000062B06B81FF4D4380CC7D4080807F6D390D
:1028100030AD9825C38110B9BF111C81FE0102891A
:10282000141910A90F39B029D0198D39F94F80FF2B
:10283000A020100FA129A0AD0F1020A0532D81FFC3
:102840008201C08147E6498991926752C01E010109
:102850007F818138819E017F80817F408F01073990
:10286000C03907428F011FE11CE11F101E81E718CC
:1028700018E7D03C40C040049E808146380671373E
:10288000C3A1918985C353F0084B027D5D72F0723C
:10289000FF5A0811D4807D02780AC0202060C080D1
:0C28A000806080543B803F88B100000045
:04000005000000C136
:00000001FF
